{
  "_format": "hh-sol-artifact-1",
  "contractName": "Delphya",
  "sourceName": "contracts/Delphya.sol",
  "abi": [
    {
      "inputs": [],
      "stateMutability": "nonpayable",
      "type": "constructor"
    },
    {
      "anonymous": false,
      "inputs": [
        {
          "indexed": true,
          "internalType": "address",
          "name": "owner",
          "type": "address"
        },
        {
          "indexed": true,
          "internalType": "address",
          "name": "spender",
          "type": "address"
        },
        {
          "indexed": false,
          "internalType": "uint256",
          "name": "value",
          "type": "uint256"
        }
      ],
      "name": "Approval",
      "type": "event"
    },
    {
      "anonymous": false,
      "inputs": [
        {
          "indexed": true,
          "internalType": "address",
          "name": "previousOwner",
          "type": "address"
        },
        {
          "indexed": true,
          "internalType": "address",
          "name": "newOwner",
          "type": "address"
        }
      ],
      "name": "OwnershipTransferred",
      "type": "event"
    },
    {
      "anonymous": false,
      "inputs": [
        {
          "indexed": false,
          "internalType": "uint256",
          "name": "predictionId",
          "type": "uint256"
        },
        {
          "indexed": false,
          "internalType": "string",
          "name": "description",
          "type": "string"
        },
        {
          "indexed": false,
          "internalType": "uint256",
          "name": "dateLimit",
          "type": "uint256"
        }
      ],
      "name": "PredictionCreated",
      "type": "event"
    },
    {
      "anonymous": false,
      "inputs": [
        {
          "indexed": true,
          "internalType": "address",
          "name": "from",
          "type": "address"
        },
        {
          "indexed": true,
          "internalType": "address",
          "name": "to",
          "type": "address"
        },
        {
          "indexed": false,
          "internalType": "uint256",
          "name": "value",
          "type": "uint256"
        }
      ],
      "name": "Transfer",
      "type": "event"
    },
    {
      "inputs": [
        {
          "internalType": "address",
          "name": "owner",
          "type": "address"
        },
        {
          "internalType": "address",
          "name": "spender",
          "type": "address"
        }
      ],
      "name": "allowance",
      "outputs": [
        {
          "internalType": "uint256",
          "name": "",
          "type": "uint256"
        }
      ],
      "stateMutability": "view",
      "type": "function"
    },
    {
      "inputs": [
        {
          "internalType": "address",
          "name": "spender",
          "type": "address"
        },
        {
          "internalType": "uint256",
          "name": "amount",
          "type": "uint256"
        }
      ],
      "name": "approve",
      "outputs": [
        {
          "internalType": "bool",
          "name": "",
          "type": "bool"
        }
      ],
      "stateMutability": "nonpayable",
      "type": "function"
    },
    {
      "inputs": [
        {
          "internalType": "address",
          "name": "account",
          "type": "address"
        }
      ],
      "name": "balanceOf",
      "outputs": [
        {
          "internalType": "uint256",
          "name": "",
          "type": "uint256"
        }
      ],
      "stateMutability": "view",
      "type": "function"
    },
    {
      "inputs": [
        {
          "internalType": "uint256",
          "name": "_predictionId",
          "type": "uint256"
        },
        {
          "internalType": "bool",
          "name": "_prediction",
          "type": "bool"
        },
        {
          "internalType": "uint256",
          "name": "_amountBet",
          "type": "uint256"
        }
      ],
      "name": "betPrediction",
      "outputs": [],
      "stateMutability": "nonpayable",
      "type": "function"
    },
    {
      "inputs": [
        {
          "internalType": "uint256",
          "name": "_predictionId",
          "type": "uint256"
        }
      ],
      "name": "claimRewards",
      "outputs": [],
      "stateMutability": "nonpayable",
      "type": "function"
    },
    {
      "inputs": [
        {
          "internalType": "string",
          "name": "_description",
          "type": "string"
        },
        {
          "internalType": "uint256",
          "name": "_dateLimit",
          "type": "uint256"
        }
      ],
      "name": "createPrediction",
      "outputs": [],
      "stateMutability": "nonpayable",
      "type": "function"
    },
    {
      "inputs": [
        {
          "internalType": "string",
          "name": "_nickname",
          "type": "string"
        }
      ],
      "name": "createProfil",
      "outputs": [],
      "stateMutability": "nonpayable",
      "type": "function"
    },
    {
      "inputs": [],
      "name": "decimals",
      "outputs": [
        {
          "internalType": "uint8",
          "name": "",
          "type": "uint8"
        }
      ],
      "stateMutability": "view",
      "type": "function"
    },
    {
      "inputs": [
        {
          "internalType": "address",
          "name": "spender",
          "type": "address"
        },
        {
          "internalType": "uint256",
          "name": "subtractedValue",
          "type": "uint256"
        }
      ],
      "name": "decreaseAllowance",
      "outputs": [
        {
          "internalType": "bool",
          "name": "",
          "type": "bool"
        }
      ],
      "stateMutability": "nonpayable",
      "type": "function"
    },
    {
      "inputs": [
        {
          "internalType": "uint256",
          "name": "_predictionId",
          "type": "uint256"
        },
        {
          "internalType": "uint256",
          "name": "_betId",
          "type": "uint256"
        }
      ],
      "name": "getBet",
      "outputs": [
        {
          "components": [
            {
              "internalType": "address",
              "name": "user",
              "type": "address"
            },
            {
              "internalType": "bool",
              "name": "prediction",
              "type": "bool"
            },
            {
              "internalType": "bool",
              "name": "rewardAlreadyClaimed",
              "type": "bool"
            },
            {
              "internalType": "uint256",
              "name": "amountBet",
              "type": "uint256"
            }
          ],
          "internalType": "struct Delphya.Bet",
          "name": "",
          "type": "tuple"
        }
      ],
      "stateMutability": "view",
      "type": "function"
    },
    {
      "inputs": [
        {
          "internalType": "address",
          "name": "spender",
          "type": "address"
        },
        {
          "internalType": "uint256",
          "name": "addedValue",
          "type": "uint256"
        }
      ],
      "name": "increaseAllowance",
      "outputs": [
        {
          "internalType": "bool",
          "name": "",
          "type": "bool"
        }
      ],
      "stateMutability": "nonpayable",
      "type": "function"
    },
    {
      "inputs": [],
      "name": "maxSupply",
      "outputs": [
        {
          "internalType": "uint256",
          "name": "",
          "type": "uint256"
        }
      ],
      "stateMutability": "view",
      "type": "function"
    },
    {
      "inputs": [
        {
          "internalType": "address",
          "name": "_to",
          "type": "address"
        },
        {
          "internalType": "uint256",
          "name": "_amount",
          "type": "uint256"
        }
      ],
      "name": "mint",
      "outputs": [],
      "stateMutability": "payable",
      "type": "function"
    },
    {
      "inputs": [],
      "name": "name",
      "outputs": [
        {
          "internalType": "string",
          "name": "",
          "type": "string"
        }
      ],
      "stateMutability": "view",
      "type": "function"
    },
    {
      "inputs": [],
      "name": "nextPrediction",
      "outputs": [
        {
          "internalType": "uint256",
          "name": "",
          "type": "uint256"
        }
      ],
      "stateMutability": "view",
      "type": "function"
    },
    {
      "inputs": [],
      "name": "owner",
      "outputs": [
        {
          "internalType": "address",
          "name": "",
          "type": "address"
        }
      ],
      "stateMutability": "view",
      "type": "function"
    },
    {
      "inputs": [
        {
          "internalType": "uint256",
          "name": "",
          "type": "uint256"
        }
      ],
      "name": "predictions",
      "outputs": [
        {
          "internalType": "bool",
          "name": "didItHappened",
          "type": "bool"
        },
        {
          "internalType": "bool",
          "name": "claimable",
          "type": "bool"
        },
        {
          "internalType": "string",
          "name": "description",
          "type": "string"
        },
        {
          "internalType": "uint256",
          "name": "dateLimit",
          "type": "uint256"
        },
        {
          "internalType": "uint256",
          "name": "nextBet",
          "type": "uint256"
        },
        {
          "internalType": "uint256",
          "name": "totalAmountBets",
          "type": "uint256"
        },
        {
          "internalType": "uint256",
          "name": "totalAmountBetsWinners",
          "type": "uint256"
        }
      ],
      "stateMutability": "view",
      "type": "function"
    },
    {
      "inputs": [],
      "name": "renounceOwnership",
      "outputs": [],
      "stateMutability": "nonpayable",
      "type": "function"
    },
    {
      "inputs": [
        {
          "internalType": "uint256",
          "name": "_predictionId",
          "type": "uint256"
        },
        {
          "internalType": "bool",
          "name": "_result",
          "type": "bool"
        }
      ],
      "name": "resultPrediction",
      "outputs": [],
      "stateMutability": "nonpayable",
      "type": "function"
    },
    {
      "inputs": [],
      "name": "salePrice",
      "outputs": [
        {
          "internalType": "uint256",
          "name": "",
          "type": "uint256"
        }
      ],
      "stateMutability": "view",
      "type": "function"
    },
    {
      "inputs": [],
      "name": "symbol",
      "outputs": [
        {
          "internalType": "string",
          "name": "",
          "type": "string"
        }
      ],
      "stateMutability": "view",
      "type": "function"
    },
    {
      "inputs": [],
      "name": "totalSupply",
      "outputs": [
        {
          "internalType": "uint256",
          "name": "",
          "type": "uint256"
        }
      ],
      "stateMutability": "view",
      "type": "function"
    },
    {
      "inputs": [
        {
          "internalType": "address",
          "name": "to",
          "type": "address"
        },
        {
          "internalType": "uint256",
          "name": "amount",
          "type": "uint256"
        }
      ],
      "name": "transfer",
      "outputs": [
        {
          "internalType": "bool",
          "name": "",
          "type": "bool"
        }
      ],
      "stateMutability": "nonpayable",
      "type": "function"
    },
    {
      "inputs": [
        {
          "internalType": "address",
          "name": "from",
          "type": "address"
        },
        {
          "internalType": "address",
          "name": "to",
          "type": "address"
        },
        {
          "internalType": "uint256",
          "name": "amount",
          "type": "uint256"
        }
      ],
      "name": "transferFrom",
      "outputs": [
        {
          "internalType": "bool",
          "name": "",
          "type": "bool"
        }
      ],
      "stateMutability": "nonpayable",
      "type": "function"
    },
    {
      "inputs": [
        {
          "internalType": "address",
          "name": "newOwner",
          "type": "address"
        }
      ],
      "name": "transferOwnership",
      "outputs": [],
      "stateMutability": "nonpayable",
      "type": "function"
    },
    {
      "inputs": [
        {
          "internalType": "address",
          "name": "",
          "type": "address"
        }
      ],
      "name": "users",
      "outputs": [
        {
          "internalType": "string",
          "name": "nickName",
          "type": "string"
        }
      ],
      "stateMutability": "view",
      "type": "function"
    },
    {
      "stateMutability": "payable",
      "type": "receive"
    }
  ],
  "bytecode": "0x60806040523480156200001157600080fd5b506040518060400160405280600781526020017f44656c70687961000000000000000000000000000000000000000000000000008152506040518060400160405280600381526020017f424159000000000000000000000000000000000000000000000000000000000081525081600390805190602001906200009692919062000345565b508060049080519060200190620000af92919062000345565b505050620000d2620000c6620000f460201b60201c565b620000fc60201b60201c565b620000ee3369d3c21bcecceda1000000620001c260201b60201c565b620005a1565b600033905090565b6000600560009054906101000a900473ffffffffffffffffffffffffffffffffffffffff16905081600560006101000a81548173ffffffffffffffffffffffffffffffffffffffff021916908373ffffffffffffffffffffffffffffffffffffffff1602179055508173ffffffffffffffffffffffffffffffffffffffff168173ffffffffffffffffffffffffffffffffffffffff167f8be0079c531659141344cd1fd0a4f28419497f9722a3daafe3b4186f6b6457e060405160405180910390a35050565b600073ffffffffffffffffffffffffffffffffffffffff168273ffffffffffffffffffffffffffffffffffffffff16141562000235576040517f08c379a00000000000000000000000000000000000000000000000000000000081526004016200022c906200042d565b60405180910390fd5b62000249600083836200033b60201b60201c565b80600260008282546200025d91906200047d565b92505081905550806000808473ffffffffffffffffffffffffffffffffffffffff1673ffffffffffffffffffffffffffffffffffffffff1681526020019081526020016000206000828254620002b491906200047d565b925050819055508173ffffffffffffffffffffffffffffffffffffffff16600073ffffffffffffffffffffffffffffffffffffffff167fddf252ad1be2c89b69c2b068fc378daa952ba7f163c4a11628f55a4df523b3ef836040516200031b91906200044f565b60405180910390a362000337600083836200034060201b60201c565b5050565b505050565b505050565b8280546200035390620004e4565b90600052602060002090601f016020900481019282620003775760008555620003c3565b82601f106200039257805160ff1916838001178555620003c3565b82800160010185558215620003c3579182015b82811115620003c2578251825591602001919060010190620003a5565b5b509050620003d29190620003d6565b5090565b5b80821115620003f1576000816000905550600101620003d7565b5090565b600062000404601f836200046c565b9150620004118262000578565b602082019050919050565b6200042781620004da565b82525050565b600060208201905081810360008301526200044881620003f5565b9050919050565b60006020820190506200046660008301846200041c565b92915050565b600082825260208201905092915050565b60006200048a82620004da565b91506200049783620004da565b9250827fffffffffffffffffffffffffffffffffffffffffffffffffffffffffffffffff03821115620004cf57620004ce6200051a565b5b828201905092915050565b6000819050919050565b60006002820490506001821680620004fd57607f821691505b6020821081141562000514576200051362000549565b5b50919050565b7f4e487b7100000000000000000000000000000000000000000000000000000000600052601160045260246000fd5b7f4e487b7100000000000000000000000000000000000000000000000000000000600052602260045260246000fd5b7f45524332303a206d696e7420746f20746865207a65726f206164647265737300600082015250565b612f6c80620005b16000396000f3fe6080604052600436106101845760003560e01c8063832cd0e6116100d1578063a9059cbb1161008a578063ed56078f11610064578063ed56078f1461060c578063efe103f914610635578063f2fde38b1461065e578063f51f96dd14610687576101c4565b8063a9059cbb14610567578063d5abeb01146105a4578063dd62ed3e146105cf576101c4565b8063832cd0e6146104435780638da5cb5b1461046e5780639576d3661461049957806395d89b41146104c2578063a457c2d7146104ed578063a87430ba1461052a576101c4565b806323b872dd1161013e57806340c10f191161011857806340c10f19146103aa57806357d30ee8146103c657806370a08231146103ef578063715018a61461042c576101c4565b806323b872dd14610305578063313ce56714610342578063395093511461036d576101c4565b80624fbbb0146101c957806306fdde031461020c578063095ea7b3146102375780630962ef791461027457806318160ddd1461029d5780632301b83d146102c8576101c4565b366101c4576040517f08c379a00000000000000000000000000000000000000000000000000000000081526004016101bb90612737565b60405180910390fd5b600080fd5b3480156101d557600080fd5b506101f060048036038101906101eb9190612049565b6106b2565b604051610203979695949392919061251f565b60405180910390f35b34801561021857600080fd5b50610221610796565b60405161022e9190612595565b60405180910390f35b34801561024357600080fd5b5061025e60048036038101906102599190611f2f565b610828565b60405161026b9190612504565b60405180910390f35b34801561028057600080fd5b5061029b60048036038101906102969190612049565b61084b565b005b3480156102a957600080fd5b506102b2610b70565b6040516102bf91906127f2565b60405180910390f35b3480156102d457600080fd5b506102ef60048036038101906102ea9190612109565b610b7a565b6040516102fc91906127d7565b60405180910390f35b34801561031157600080fd5b5061032c60048036038101906103279190611edc565b610c52565b6040516103399190612504565b60405180910390f35b34801561034e57600080fd5b50610357610c81565b604051610364919061284d565b60405180910390f35b34801561037957600080fd5b50610394600480360381019061038f9190611f2f565b610c8a565b6040516103a19190612504565b60405180910390f35b6103c460048036038101906103bf9190611f2f565b610cc1565b005b3480156103d257600080fd5b506103ed60048036038101906103e891906120b6565b610e49565b005b3480156103fb57600080fd5b5061041660048036038101906104119190611e6f565b610f95565b60405161042391906127f2565b60405180910390f35b34801561043857600080fd5b50610441610fdd565b005b34801561044f57600080fd5b50610458610ff1565b60405161046591906127f2565b60405180910390f35b34801561047a57600080fd5b50610483610ff7565b60405161049091906124c0565b60405180910390f35b3480156104a557600080fd5b506104c060048036038101906104bb9190611fe9565b611021565b005b3480156104ce57600080fd5b506104d76110ca565b6040516104e49190612595565b60405180910390f35b3480156104f957600080fd5b50610514600480360381019061050f9190611f2f565b61115c565b6040516105219190612504565b60405180910390f35b34801561053657600080fd5b50610551600480360381019061054c9190611e6f565b6111d3565b60405161055e9190612595565b60405180910390f35b34801561057357600080fd5b5061058e60048036038101906105899190611f2f565b611279565b60405161059b9190612504565b60405180910390f35b3480156105b057600080fd5b506105b961129c565b6040516105c691906127f2565b60405180910390f35b3480156105db57600080fd5b506105f660048036038101906105f19190611e9c565b6112ab565b60405161060391906127f2565b60405180910390f35b34801561061857600080fd5b50610633600480360381019061062e9190612076565b611332565b005b34801561064157600080fd5b5061065c60048036038101906106579190611f9c565b611471565b005b34801561066a57600080fd5b5061068560048036038101906106809190611e6f565b6114c7565b005b34801561069357600080fd5b5061069c61154b565b6040516106a991906127f2565b60405180910390f35b60086020528060005260406000206000915090508060000160009054906101000a900460ff16908060000160019054906101000a900460ff16908060010180546106fb906129fc565b80601f0160208091040260200160405190810160405280929190818152602001828054610727906129fc565b80156107745780601f1061074957610100808354040283529160200191610774565b820191906000526020600020905b81548152906001019060200180831161075757829003601f168201915b5050505050908060020154908060030154908060040154908060050154905087565b6060600380546107a5906129fc565b80601f01602080910402602001604051908101604052809291908181526020018280546107d1906129fc565b801561081e5780601f106107f35761010080835404028352916020019161081e565b820191906000526020600020905b81548152906001019060200180831161080157829003601f168201915b5050505050905090565b600080610833611552565b905061084081858561155a565b600191505092915050565b3373ffffffffffffffffffffffffffffffffffffffff163273ffffffffffffffffffffffffffffffffffffffff16146108b9576040517f08c379a00000000000000000000000000000000000000000000000000000000081526004016108b090612637565b60405180910390fd5b60006008600083815260200190815260200160002090508060000160019054906101000a900460ff16610921576040517f08c379a0000000000000000000000000000000000000000000000000000000008152600401610918906126d7565b60405180910390fd5b600080600190505b82600301548111610a99573373ffffffffffffffffffffffffffffffffffffffff1683600601600083815260200190815260200160002060000160009054906101000a900473ffffffffffffffffffffffffffffffffffffffff1673ffffffffffffffffffffffffffffffffffffffff161480156109e057508260000160009054906101000a900460ff16151583600601600083815260200190815260200160002060000160149054906101000a900460ff161515145b15610a865782600601600082815260200190815260200160002060000160159054906101000a900460ff16610a8557600183600601600083815260200190815260200160002060000160156101000a81548160ff0219169083151502179055508260040154836005015484600601600084815260200190815260200160002060010154610a6d91906128da565b610a77919061290b565b82610a829190612884565b91505b5b8080610a9190612a2e565b915050610929565b5060008111610add576040517f08c379a0000000000000000000000000000000000000000000000000000000008152600401610ad490612757565b60405180910390fd5b3073ffffffffffffffffffffffffffffffffffffffff1663a9059cbb33836040518363ffffffff1660e01b8152600401610b189291906124db565b602060405180830381600087803b158015610b3257600080fd5b505af1158015610b46573d6000803e3d6000fd5b505050506040513d601f19601f82011682018060405250810190610b6a9190611f6f565b50505050565b6000600254905090565b610b82611ce0565b6008600084815260200190815260200160002060060160008381526020019081526020016000206040518060800160405290816000820160009054906101000a900473ffffffffffffffffffffffffffffffffffffffff1673ffffffffffffffffffffffffffffffffffffffff1673ffffffffffffffffffffffffffffffffffffffff1681526020016000820160149054906101000a900460ff161515151581526020016000820160159054906101000a900460ff16151515158152602001600182015481525050905092915050565b600080610c5d611552565b9050610c6a858285611725565b610c758585856117b1565b60019150509392505050565b60006012905090565b600080610c95611552565b9050610cb6818585610ca785896112ab565b610cb19190612884565b61155a565b600191505092915050565b3373ffffffffffffffffffffffffffffffffffffffff163273ffffffffffffffffffffffffffffffffffffffff1614610d2f576040517f08c379a0000000000000000000000000000000000000000000000000000000008152600401610d2690612637565b60405180910390fd5b6a115eec47f6cf7e3500000081610d44610b70565b610d4e9190612884565b1115610d8f576040517f08c379a0000000000000000000000000000000000000000000000000000000008152600401610d86906125d7565b60405180910390fd5b620f424081610d9e91906128da565b341015610de0576040517f08c379a0000000000000000000000000000000000000000000000000000000008152600401610dd790612657565b60405180910390fd5b73d9453f5e2696604703076835496f81c3753c3bb373ffffffffffffffffffffffffffffffffffffffff166108fc479081150290604051600060405180830381858888f19350505050158015610e3a573d6000803e3d6000fd5b50610e458282611a32565b5050565b610e533082611279565b506000600860008581526020019081526020016000209050806003016000815480929190610e8090612a2e565b9190505550600060405180608001604052803373ffffffffffffffffffffffffffffffffffffffff1681526020018515158152602001600015158152602001848152509050808260060160008460030154815260200190815260200160002060008201518160000160006101000a81548173ffffffffffffffffffffffffffffffffffffffff021916908373ffffffffffffffffffffffffffffffffffffffff16021790555060208201518160000160146101000a81548160ff02191690831515021790555060408201518160000160156101000a81548160ff0219169083151502179055506060820151816001015590505082826004016000828254610f879190612884565b925050819055505050505050565b60008060008373ffffffffffffffffffffffffffffffffffffffff1673ffffffffffffffffffffffffffffffffffffffff168152602001908152602001600020549050919050565b610fe5611b92565b610fef6000611c10565b565b60065481565b6000600560009054906101000a900473ffffffffffffffffffffffffffffffffffffffff16905090565b611029611b92565b6006600081548092919061103c90612a2e565b919050555082826008600060065481526020019081526020016000206001019190611068929190611d22565b5080600860006006548152602001908152602001600020600201819055507f259c48cf151ba2e96755462b690d31372c37d0eee3779b078f1f7992e3b38ae76006548484846040516110bd949392919061280d565b60405180910390a1505050565b6060600480546110d9906129fc565b80601f0160208091040260200160405190810160405280929190818152602001828054611105906129fc565b80156111525780601f1061112757610100808354040283529160200191611152565b820191906000526020600020905b81548152906001019060200180831161113557829003601f168201915b5050505050905090565b600080611167611552565b9050600061117582866112ab565b9050838110156111ba576040517f08c379a00000000000000000000000000000000000000000000000000000000081526004016111b190612797565b60405180910390fd5b6111c7828686840361155a565b60019250505092915050565b60076020528060005260406000206000915090508060000180546111f6906129fc565b80601f0160208091040260200160405190810160405280929190818152602001828054611222906129fc565b801561126f5780601f106112445761010080835404028352916020019161126f565b820191906000526020600020905b81548152906001019060200180831161125257829003601f168201915b5050505050905081565b600080611284611552565b90506112918185856117b1565b600191505092915050565b6a115eec47f6cf7e3500000081565b6000600160008473ffffffffffffffffffffffffffffffffffffffff1673ffffffffffffffffffffffffffffffffffffffff16815260200190815260200160002060008373ffffffffffffffffffffffffffffffffffffffff1673ffffffffffffffffffffffffffffffffffffffff16815260200190815260200160002054905092915050565b61133a611b92565b4260086000848152602001908152602001600020600201541115611393576040517f08c379a000000000000000000000000000000000000000000000000000000000815260040161138a90612777565b60405180910390fd5b6000600860008481526020019081526020016000209050818160000160006101000a81548160ff021916908315150217905550600080600190505b826003015481116114445783151583600601600083815260200190815260200160002060000160149054906101000a900460ff161515141561143157826006016000828152602001908152602001600020600101548261142e9190612884565b91505b808061143c90612a2e565b9150506113ce565b5080826005018190555060018260000160016101000a81548160ff02191690831515021790555050505050565b8181600760003373ffffffffffffffffffffffffffffffffffffffff1673ffffffffffffffffffffffffffffffffffffffff16815260200190815260200160002060000191906114c2929190611d22565b505050565b6114cf611b92565b600073ffffffffffffffffffffffffffffffffffffffff168173ffffffffffffffffffffffffffffffffffffffff16141561153f576040517f08c379a0000000000000000000000000000000000000000000000000000000008152600401611536906125f7565b60405180910390fd5b61154881611c10565b50565b620f424081565b600033905090565b600073ffffffffffffffffffffffffffffffffffffffff168373ffffffffffffffffffffffffffffffffffffffff1614156115ca576040517f08c379a00000000000000000000000000000000000000000000000000000000081526004016115c190612717565b60405180910390fd5b600073ffffffffffffffffffffffffffffffffffffffff168273ffffffffffffffffffffffffffffffffffffffff16141561163a576040517f08c379a000000000000000000000000000000000000000000000000000000000815260040161163190612617565b60405180910390fd5b80600160008573ffffffffffffffffffffffffffffffffffffffff1673ffffffffffffffffffffffffffffffffffffffff16815260200190815260200160002060008473ffffffffffffffffffffffffffffffffffffffff1673ffffffffffffffffffffffffffffffffffffffff168152602001908152602001600020819055508173ffffffffffffffffffffffffffffffffffffffff168373ffffffffffffffffffffffffffffffffffffffff167f8c5be1e5ebec7d5bd14f71427d1e84f3dd0314c0f7b2291e5b200ac8c7c3b9258360405161171891906127f2565b60405180910390a3505050565b600061173184846112ab565b90507fffffffffffffffffffffffffffffffffffffffffffffffffffffffffffffffff81146117ab578181101561179d576040517f08c379a000000000000000000000000000000000000000000000000000000000815260040161179490612677565b60405180910390fd5b6117aa848484840361155a565b5b50505050565b600073ffffffffffffffffffffffffffffffffffffffff168373ffffffffffffffffffffffffffffffffffffffff161415611821576040517f08c379a0000000000000000000000000000000000000000000000000000000008152600401611818906126f7565b60405180910390fd5b600073ffffffffffffffffffffffffffffffffffffffff168273ffffffffffffffffffffffffffffffffffffffff161415611891576040517f08c379a0000000000000000000000000000000000000000000000000000000008152600401611888906125b7565b60405180910390fd5b61189c838383611cd6565b60008060008573ffffffffffffffffffffffffffffffffffffffff1673ffffffffffffffffffffffffffffffffffffffff16815260200190815260200160002054905081811015611922576040517f08c379a000000000000000000000000000000000000000000000000000000000815260040161191990612697565b60405180910390fd5b8181036000808673ffffffffffffffffffffffffffffffffffffffff1673ffffffffffffffffffffffffffffffffffffffff16815260200190815260200160002081905550816000808573ffffffffffffffffffffffffffffffffffffffff1673ffffffffffffffffffffffffffffffffffffffff16815260200190815260200160002060008282546119b59190612884565b925050819055508273ffffffffffffffffffffffffffffffffffffffff168473ffffffffffffffffffffffffffffffffffffffff167fddf252ad1be2c89b69c2b068fc378daa952ba7f163c4a11628f55a4df523b3ef84604051611a1991906127f2565b60405180910390a3611a2c848484611cdb565b50505050565b600073ffffffffffffffffffffffffffffffffffffffff168273ffffffffffffffffffffffffffffffffffffffff161415611aa2576040517f08c379a0000000000000000000000000000000000000000000000000000000008152600401611a99906127b7565b60405180910390fd5b611aae60008383611cd6565b8060026000828254611ac09190612884565b92505081905550806000808473ffffffffffffffffffffffffffffffffffffffff1673ffffffffffffffffffffffffffffffffffffffff1681526020019081526020016000206000828254611b159190612884565b925050819055508173ffffffffffffffffffffffffffffffffffffffff16600073ffffffffffffffffffffffffffffffffffffffff167fddf252ad1be2c89b69c2b068fc378daa952ba7f163c4a11628f55a4df523b3ef83604051611b7a91906127f2565b60405180910390a3611b8e60008383611cdb565b5050565b611b9a611552565b73ffffffffffffffffffffffffffffffffffffffff16611bb8610ff7565b73ffffffffffffffffffffffffffffffffffffffff1614611c0e576040517f08c379a0000000000000000000000000000000000000000000000000000000008152600401611c05906126b7565b60405180910390fd5b565b6000600560009054906101000a900473ffffffffffffffffffffffffffffffffffffffff16905081600560006101000a81548173ffffffffffffffffffffffffffffffffffffffff021916908373ffffffffffffffffffffffffffffffffffffffff1602179055508173ffffffffffffffffffffffffffffffffffffffff168173ffffffffffffffffffffffffffffffffffffffff167f8be0079c531659141344cd1fd0a4f28419497f9722a3daafe3b4186f6b6457e060405160405180910390a35050565b505050565b505050565b6040518060800160405280600073ffffffffffffffffffffffffffffffffffffffff168152602001600015158152602001600015158152602001600081525090565b828054611d2e906129fc565b90600052602060002090601f016020900481019282611d505760008555611d97565b82601f10611d6957803560ff1916838001178555611d97565b82800160010185558215611d97579182015b82811115611d96578235825591602001919060010190611d7b565b5b509050611da49190611da8565b5090565b5b80821115611dc1576000816000905550600101611da9565b5090565b600081359050611dd481612ef1565b92915050565b600081359050611de981612f08565b92915050565b600081519050611dfe81612f08565b92915050565b60008083601f840112611e1a57611e19612b09565b5b8235905067ffffffffffffffff811115611e3757611e36612b04565b5b602083019150836001820283011115611e5357611e52612b0e565b5b9250929050565b600081359050611e6981612f1f565b92915050565b600060208284031215611e8557611e84612b18565b5b6000611e9384828501611dc5565b91505092915050565b60008060408385031215611eb357611eb2612b18565b5b6000611ec185828601611dc5565b9250506020611ed285828601611dc5565b9150509250929050565b600080600060608486031215611ef557611ef4612b18565b5b6000611f0386828701611dc5565b9350506020611f1486828701611dc5565b9250506040611f2586828701611e5a565b9150509250925092565b60008060408385031215611f4657611f45612b18565b5b6000611f5485828601611dc5565b9250506020611f6585828601611e5a565b9150509250929050565b600060208284031215611f8557611f84612b18565b5b6000611f9384828501611def565b91505092915050565b60008060208385031215611fb357611fb2612b18565b5b600083013567ffffffffffffffff811115611fd157611fd0612b13565b5b611fdd85828601611e04565b92509250509250929050565b60008060006040848603121561200257612001612b18565b5b600084013567ffffffffffffffff8111156120205761201f612b13565b5b61202c86828701611e04565b9350935050602061203f86828701611e5a565b9150509250925092565b60006020828403121561205f5761205e612b18565b5b600061206d84828501611e5a565b91505092915050565b6000806040838503121561208d5761208c612b18565b5b600061209b85828601611e5a565b92505060206120ac85828601611dda565b9150509250929050565b6000806000606084860312156120cf576120ce612b18565b5b60006120dd86828701611e5a565b93505060206120ee86828701611dda565b92505060406120ff86828701611e5a565b9150509250925092565b600080604083850312156121205761211f612b18565b5b600061212e85828601611e5a565b925050602061213f85828601611e5a565b9150509250929050565b61215281612965565b82525050565b61216181612965565b82525050565b61217081612977565b82525050565b61217f81612977565b82525050565b60006121918385612873565b935061219e8385846129ba565b6121a783612b1d565b840190509392505050565b60006121bd82612868565b6121c78185612873565b93506121d78185602086016129c9565b6121e081612b1d565b840191505092915050565b60006121f8602383612873565b915061220382612b2e565b604082019050919050565b600061221b600883612873565b915061222682612b7d565b602082019050919050565b600061223e602683612873565b915061224982612ba6565b604082019050919050565b6000612261602283612873565b915061226c82612bf5565b604082019050919050565b6000612284601483612873565b915061228f82612c44565b602082019050919050565b60006122a7601083612873565b91506122b282612c6d565b602082019050919050565b60006122ca601d83612873565b91506122d582612c96565b602082019050919050565b60006122ed602683612873565b91506122f882612cbf565b604082019050919050565b6000612310602083612873565b915061231b82612d0e565b602082019050919050565b6000612333601383612873565b915061233e82612d37565b602082019050919050565b6000612356602583612873565b915061236182612d60565b604082019050919050565b6000612379602483612873565b915061238482612daf565b604082019050919050565b600061239c601083612873565b91506123a782612dfe565b602082019050919050565b60006123bf600a83612873565b91506123ca82612e27565b602082019050919050565b60006123e2601283612873565b91506123ed82612e50565b602082019050919050565b6000612405602583612873565b915061241082612e79565b604082019050919050565b6000612428601f83612873565b915061243382612ec8565b602082019050919050565b6080820160008201516124546000850182612149565b5060208201516124676020850182612167565b50604082015161247a6040850182612167565b50606082015161248d6060850182612493565b50505050565b61249c816129a3565b82525050565b6124ab816129a3565b82525050565b6124ba816129ad565b82525050565b60006020820190506124d56000830184612158565b92915050565b60006040820190506124f06000830185612158565b6124fd60208301846124a2565b9392505050565b60006020820190506125196000830184612176565b92915050565b600060e082019050612534600083018a612176565b6125416020830189612176565b818103604083015261255381886121b2565b905061256260608301876124a2565b61256f60808301866124a2565b61257c60a08301856124a2565b61258960c08301846124a2565b98975050505050505050565b600060208201905081810360008301526125af81846121b2565b905092915050565b600060208201905081810360008301526125d0816121eb565b9050919050565b600060208201905081810360008301526125f08161220e565b9050919050565b6000602082019050818103600083015261261081612231565b9050919050565b6000602082019050818103600083015261263081612254565b9050919050565b6000602082019050818103600083015261265081612277565b9050919050565b600060208201905081810360008301526126708161229a565b9050919050565b60006020820190508181036000830152612690816122bd565b9050919050565b600060208201905081810360008301526126b0816122e0565b9050919050565b600060208201905081810360008301526126d081612303565b9050919050565b600060208201905081810360008301526126f081612326565b9050919050565b6000602082019050818103600083015261271081612349565b9050919050565b600060208201905081810360008301526127308161236c565b9050919050565b600060208201905081810360008301526127508161238f565b9050919050565b60006020820190508181036000830152612770816123b2565b9050919050565b60006020820190508181036000830152612790816123d5565b9050919050565b600060208201905081810360008301526127b0816123f8565b9050919050565b600060208201905081810360008301526127d08161241b565b9050919050565b60006080820190506127ec600083018461243e565b92915050565b600060208201905061280760008301846124a2565b92915050565b600060608201905061282260008301876124a2565b8181036020830152612835818587612185565b905061284460408301846124a2565b95945050505050565b600060208201905061286260008301846124b1565b92915050565b600081519050919050565b600082825260208201905092915050565b600061288f826129a3565b915061289a836129a3565b9250827fffffffffffffffffffffffffffffffffffffffffffffffffffffffffffffffff038211156128cf576128ce612a77565b5b828201905092915050565b60006128e5826129a3565b91506128f0836129a3565b925082612900576128ff612aa6565b5b828204905092915050565b6000612916826129a3565b9150612921836129a3565b9250817fffffffffffffffffffffffffffffffffffffffffffffffffffffffffffffffff048311821515161561295a57612959612a77565b5b828202905092915050565b600061297082612983565b9050919050565b60008115159050919050565b600073ffffffffffffffffffffffffffffffffffffffff82169050919050565b6000819050919050565b600060ff82169050919050565b82818337600083830152505050565b60005b838110156129e75780820151818401526020810190506129cc565b838111156129f6576000848401525b50505050565b60006002820490506001821680612a1457607f821691505b60208210811415612a2857612a27612ad5565b5b50919050565b6000612a39826129a3565b91507fffffffffffffffffffffffffffffffffffffffffffffffffffffffffffffffff821415612a6c57612a6b612a77565b5b600182019050919050565b7f4e487b7100000000000000000000000000000000000000000000000000000000600052601160045260246000fd5b7f4e487b7100000000000000000000000000000000000000000000000000000000600052601260045260246000fd5b7f4e487b7100000000000000000000000000000000000000000000000000000000600052602260045260246000fd5b600080fd5b600080fd5b600080fd5b600080fd5b600080fd5b6000601f19601f8301169050919050565b7f45524332303a207472616e7366657220746f20746865207a65726f206164647260008201527f6573730000000000000000000000000000000000000000000000000000000000602082015250565b7f536f6c64204f7574000000000000000000000000000000000000000000000000600082015250565b7f4f776e61626c653a206e6577206f776e657220697320746865207a65726f206160008201527f6464726573730000000000000000000000000000000000000000000000000000602082015250565b7f45524332303a20617070726f766520746f20746865207a65726f20616464726560008201527f7373000000000000000000000000000000000000000000000000000000000000602082015250565b7f43616c6c6572206973206120636f6e7472616374000000000000000000000000600082015250565b7f4e6f7420656e6f7567682066756e647300000000000000000000000000000000600082015250565b7f45524332303a20696e73756666696369656e7420616c6c6f77616e6365000000600082015250565b7f45524332303a207472616e7366657220616d6f756e742065786365656473206260008201527f616c616e63650000000000000000000000000000000000000000000000000000602082015250565b7f4f776e61626c653a2063616c6c6572206973206e6f7420746865206f776e6572600082015250565b7f50726564696374696f6e206e6f7420646f6e6500000000000000000000000000600082015250565b7f45524332303a207472616e736665722066726f6d20746865207a65726f20616460008201527f6472657373000000000000000000000000000000000000000000000000000000602082015250565b7f45524332303a20617070726f76652066726f6d20746865207a65726f2061646460008201527f7265737300000000000000000000000000000000000000000000000000000000602082015250565b7f4f6e6c7920696620796f75206d696e7400000000000000000000000000000000600082015250565b7f4e6f207265776172647300000000000000000000000000000000000000000000600082015250565b7f446174654c696d6974206e6f7420646f6e650000000000000000000000000000600082015250565b7f45524332303a2064656372656173656420616c6c6f77616e63652062656c6f7760008201527f207a65726f000000000000000000000000000000000000000000000000000000602082015250565b7f45524332303a206d696e7420746f20746865207a65726f206164647265737300600082015250565b612efa81612965565b8114612f0557600080fd5b50565b612f1181612977565b8114612f1c57600080fd5b50565b612f28816129a3565b8114612f3357600080fd5b5056fea2646970667358221220dd94873c69ca7f70f9b78537c76c51895ef9f8b8563c2f3fd8002d5a2093b22664736f6c63430008070033",
  "linkReferences": {},
  "deployedLinkReferences": {}
}